{
  "contractName": "Admin",
  "abi": [
    {
      "inputs": [],
      "payable": false,
      "stateMutability": "nonpayable",
      "type": "constructor"
    },
    {
      "constant": false,
      "inputs": [
        {
          "name": "_newAdmin",
          "type": "address"
        }
      ],
      "name": "changeAdmin",
      "outputs": [],
      "payable": false,
      "stateMutability": "nonpayable",
      "type": "function"
    },
    {
      "constant": true,
      "inputs": [],
      "name": "getAdminAddress",
      "outputs": [
        {
          "name": "",
          "type": "address"
        }
      ],
      "payable": false,
      "stateMutability": "view",
      "type": "function"
    }
  ],
  "bytecode": "0x608060405234801561001057600080fd5b50336000806101000a81548173ffffffffffffffffffffffffffffffffffffffff021916908373ffffffffffffffffffffffffffffffffffffffff160217905550610255806100606000396000f3fe60806040526004361061004c576000357c0100000000000000000000000000000000000000000000000000000000900463ffffffff1680638f28397014610051578063b2e6b912146100a2575b600080fd5b34801561005d57600080fd5b506100a06004803603602081101561007457600080fd5b81019080803573ffffffffffffffffffffffffffffffffffffffff1690602001909291905050506100f9565b005b3480156100ae57600080fd5b506100b7610200565b604051808273ffffffffffffffffffffffffffffffffffffffff1673ffffffffffffffffffffffffffffffffffffffff16815260200191505060405180910390f35b6000809054906101000a900473ffffffffffffffffffffffffffffffffffffffff1673ffffffffffffffffffffffffffffffffffffffff163373ffffffffffffffffffffffffffffffffffffffff161415156101bd576040517f08c379a00000000000000000000000000000000000000000000000000000000081526004018080602001828103825260168152602001807f53656e646572206e6f7420417574686f72697a65642e0000000000000000000081525060200191505060405180910390fd5b806000806101000a81548173ffffffffffffffffffffffffffffffffffffffff021916908373ffffffffffffffffffffffffffffffffffffffff16021790555050565b60008060009054906101000a900473ffffffffffffffffffffffffffffffffffffffff1690509056fea165627a7a723058209f26fe67348ddc49a61e10346b80af68dde8c551b7b312d8a9dcc06da0d8c1150029",
  "source": "pragma solidity >=0.4.21 <0.6.0;\n//admin permission contract\ncontract Admin {\n  //admin address variable\n  address admin ;\n  //admin contract constructor to set admin as person who executes or deploys smart contract using msg.sender function\n  constructor() public{\n    admin = msg.sender;\n  }\n//setting acess modifier to restrict other addresses from acessing criticial functions .\n  modifier onlyAdmin()\n{\n    require(\n        msg.sender == admin,\n        \"Sender not Authorized.\"\n    );\n    // Do not forget the \"_;\"! It will\n    // be replaced by the actual function\n    // body when the modifier is used.\n    _;\n}\n//Change Admin Address Or Ownership\n  function changeAdmin(address _newAdmin) onlyAdmin() public {\n    admin = _newAdmin;\n\n  }\n  //function to get admin retrieve current admin address from blockchain\n  function getAdminAddress() public view returns (address) {\n    return admin;\n\n  }\n\n}\n//License Token Contract Start's Here\n\n//Inheriting All The Properties And Attribute's Of Admin Contract .\ncontract LicenseToken is Admin {\n\n//Now Building Proper Data Type To Store All The Attribute's Of Each License .\n  struct LicenseAttributes {\n\n    string registeredOn;\n    string expiresOn;\n    string device_hardware_id;\n\n  }\n//declaring list of our license tokens with attributes as an array .\n  LicenseAttributes[] license;\n//setting dictionary to store license data\n//Would Look Something Like This \"array Index\" => \"address of client\"\nmapping (uint256 => address) public licenseNumberToClient;\n//Would Look Something Like  \"Client Address\" => \"Total Licenses Owned By An Individual\"\nmapping (address => uint256) ownershipLicenseCount;\n\n\n//events\n//Genereate An Event When License Is Give To A Specific Address\nevent LicenseGiven(address account,uint256 licenseNumber);\n//Generate Evenet When License Is Transfered From One Address To Another\nevent Transfer(address _from,address _to,uint256 _licenseNumber);\n//Generate Event When Admin Approve's A New License\nevent Approval(address admin,address approved,uint256 licenseNumber);\n//contructor\nconstructor() public {\n\n}\n//started to implement basic function's\n//this function will return us total number of licenses\n\n  function totalLicenses() public view returns (uint256 total) {\n    return license.length;\n  }\n  //balanceof will return us total eth balance availaible in given eth address\n  function balanceOf(address _account) public view returns (uint256 balance) {\n\n      return  ownershipLicenseCount[_account];\n\n  }\n  //This Function Will Return Us Address Of Owner From Index Of License Token\n  function ownerOf(uint256 _license_number) public view returns (address owner) {\n\n    owner = licenseNumberToClient[_license_number];\n    //.i.e owner might not be burn address : 0x0000000000000000000000000000000000000000 else everyone will get free license's\n    //as we will be adding burned/expired licenses to burned address.\n    require(owner != address(0));\n    return  owner;\n\n  }\n//*******Crucial Financial Function To Make Transfer\n//This Is onlyAdmin Functionality And Admin Can Only Make This On User Request\n  function transferFrom(address _from,address _to,uint256 _license_number)onlyAdmin() public {\n    //neither burn address\n    require(_to!=address(0));\n    //nor it should be admin address\n    require(_to!=address(this));\n//Now A private function will intiate this transfer after doing validation's here\n    _transfer(_from,_to,_license_number);\n\n\n  }\n\n//this function is also admin only and only admin can create tokens \n  function giveLicense(address _account,string memory _registeredOn,string memory _expiresOn,string memory _hwid)onlyAdmin() public {\n    //now a private function will generate license and we wil store and emit it as an event\n    uint256 licenseId = _mint(_account,_registeredOn,_expiresOn,_hwid);\n    emit LicenseGiven(_account,licenseId);\n  }\n  //to get details of complete license index\nfunction getLicenseHardwareId(uint licenseNumber) public view returns(string memory){\n\n  return license[licenseNumber].device_hardware_id;\n}\n\nfunction getLicenseRegisteredOnDate(uint licenseNumber) public view returns(string memory){\n\n  return license[licenseNumber].registeredOn;\n}\nfunction getLicenseExpiresOnDate(uint licenseNumber) public view returns(string memory){\n\n  return license[licenseNumber].expiresOn;\n}\n\n\n  //Internal Private Methods\n  function _owns(uint _licenseId) internal view returns (address) {\n    return licenseNumberToClient[_licenseId];\n\n  }\n\n//this function will create a new token with unique attributes\n  function _mint(address _account,string memory _registeredOn,string memory _expiresOn,string memory _hwid) onlyAdmin() internal returns (uint256 tokenId){\n    //string memory hwid = string(_hwid);\n    LicenseAttributes memory licenseToken = LicenseAttributes({\n      registeredOn :_expiresOn,\n      expiresOn : _registeredOn ,\n      device_hardware_id : _hwid\n      });\n      //finally lets push this newly created structure into the array \n      uint id = license.push(licenseToken) -1;\n      //and now lets send it to the user we created it for\n     //Sending It from msg.sender .i.e. admin to the user what we need is our address,recievers address and his unique license index\n      _transfer(msg.sender,_account,id);\n      return id;\n\n  }\n  //this function will transfer token from one address to another\n  function _transfer(address _from,address _to,uint _licNumber)internal {\n    ownershipLicenseCount[_to]++;\n    licenseNumberToClient[_licNumber]=_to;\n    //and if this function is not created burn address then we remove the license count on senders id\n    if(_from!= address(0)){\n      ownershipLicenseCount[_from]--;\n\n    }\n    emit Transfer(_from, _to, _licNumber);\n  }\n}\n",
  "sourcePath": "/Users/vrushangdesai/Desktop/BLICFrontend/src/backend/contracts/LicenseToken.sol",
  "compiler": {
    "name": "solc",
    "version": "0.5.0+commit.1d4f565a.Emscripten.clang"
  },
  "schemaVersion": "3.0.0",
  "updatedAt": "2019-01-30T19:37:10.269Z",
  "devdoc": {
    "methods": {}
  },
  "userdoc": {
    "methods": {}
  }
}