{
  "contractName": "LicenseToken",
  "abi": [
    {
      "constant": true,
      "inputs": [
        {
          "name": "",
          "type": "uint256"
        }
      ],
      "name": "licenseNumberToClient",
      "outputs": [
        {
          "name": "",
          "type": "address"
        }
      ],
      "payable": false,
      "stateMutability": "view",
      "type": "function"
    },
    {
      "constant": false,
      "inputs": [
        {
          "name": "_newAdmin",
          "type": "address"
        }
      ],
      "name": "changeAdmin",
      "outputs": [],
      "payable": false,
      "stateMutability": "nonpayable",
      "type": "function"
    },
    {
      "constant": true,
      "inputs": [],
      "name": "getAdminAddress",
      "outputs": [
        {
          "name": "",
          "type": "address"
        }
      ],
      "payable": false,
      "stateMutability": "view",
      "type": "function"
    },
    {
      "inputs": [],
      "payable": false,
      "stateMutability": "nonpayable",
      "type": "constructor"
    },
    {
      "anonymous": false,
      "inputs": [
        {
          "indexed": false,
          "name": "account",
          "type": "address"
        },
        {
          "indexed": false,
          "name": "licenseNumber",
          "type": "uint256"
        }
      ],
      "name": "LicenseGiven",
      "type": "event"
    },
    {
      "anonymous": false,
      "inputs": [
        {
          "indexed": false,
          "name": "_from",
          "type": "address"
        },
        {
          "indexed": false,
          "name": "_to",
          "type": "address"
        },
        {
          "indexed": false,
          "name": "_licenseNumber",
          "type": "uint256"
        }
      ],
      "name": "Transfer",
      "type": "event"
    },
    {
      "anonymous": false,
      "inputs": [
        {
          "indexed": false,
          "name": "admin",
          "type": "address"
        },
        {
          "indexed": false,
          "name": "approved",
          "type": "address"
        },
        {
          "indexed": false,
          "name": "licenseNumber",
          "type": "uint256"
        }
      ],
      "name": "Approval",
      "type": "event"
    },
    {
      "constant": true,
      "inputs": [],
      "name": "totalLicenses",
      "outputs": [
        {
          "name": "total",
          "type": "uint256"
        }
      ],
      "payable": false,
      "stateMutability": "view",
      "type": "function"
    },
    {
      "constant": true,
      "inputs": [
        {
          "name": "_account",
          "type": "address"
        }
      ],
      "name": "balanceOf",
      "outputs": [
        {
          "name": "balance",
          "type": "uint256"
        }
      ],
      "payable": false,
      "stateMutability": "view",
      "type": "function"
    },
    {
      "constant": true,
      "inputs": [
        {
          "name": "_license_number",
          "type": "uint256"
        }
      ],
      "name": "ownerOf",
      "outputs": [
        {
          "name": "owner",
          "type": "address"
        }
      ],
      "payable": false,
      "stateMutability": "view",
      "type": "function"
    },
    {
      "constant": false,
      "inputs": [
        {
          "name": "_from",
          "type": "address"
        },
        {
          "name": "_to",
          "type": "address"
        },
        {
          "name": "_license_number",
          "type": "uint256"
        }
      ],
      "name": "transferFrom",
      "outputs": [],
      "payable": false,
      "stateMutability": "nonpayable",
      "type": "function"
    },
    {
      "constant": false,
      "inputs": [
        {
          "name": "_account",
          "type": "address"
        },
        {
          "name": "_registeredOn",
          "type": "string"
        },
        {
          "name": "_expiresOn",
          "type": "string"
        },
        {
          "name": "_hwid",
          "type": "string"
        }
      ],
      "name": "giveLicense",
      "outputs": [],
      "payable": false,
      "stateMutability": "nonpayable",
      "type": "function"
    },
    {
      "constant": true,
      "inputs": [
        {
          "name": "licenseNumber",
          "type": "uint256"
        }
      ],
      "name": "getLicenseHardwareId",
      "outputs": [
        {
          "name": "",
          "type": "string"
        }
      ],
      "payable": false,
      "stateMutability": "view",
      "type": "function"
    },
    {
      "constant": true,
      "inputs": [
        {
          "name": "licenseNumber",
          "type": "uint256"
        }
      ],
      "name": "getLicenseRegisteredOnDate",
      "outputs": [
        {
          "name": "",
          "type": "string"
        }
      ],
      "payable": false,
      "stateMutability": "view",
      "type": "function"
    },
    {
      "constant": true,
      "inputs": [
        {
          "name": "licenseNumber",
          "type": "uint256"
        }
      ],
      "name": "getLicenseExpiresOnDate",
      "outputs": [
        {
          "name": "",
          "type": "string"
        }
      ],
      "payable": false,
      "stateMutability": "view",
      "type": "function"
    }
  ],
  "bytecode": "0x608060405234801561001057600080fd5b50336000806101000a81548173ffffffffffffffffffffffffffffffffffffffff021916908373ffffffffffffffffffffffffffffffffffffffff1602179055506112eb806100606000396000f3fe6080604052600436106100af576000357c0100000000000000000000000000000000000000000000000000000000900463ffffffff1680630e80a287146100b457806323b872dd146100df5780632dd888a61461015a57806350e88602146103705780636352211e1461042457806370a082311461049f5780637a852800146105045780638f2839701461057f578063b2e6b912146105d0578063d159ac3014610627578063d7a47ad1146106db575b600080fd5b3480156100c057600080fd5b506100c961078f565b6040518082815260200191505060405180910390f35b3480156100eb57600080fd5b506101586004803603606081101561010257600080fd5b81019080803573ffffffffffffffffffffffffffffffffffffffff169060200190929190803573ffffffffffffffffffffffffffffffffffffffff1690602001909291908035906020019092919050505061079c565b005b34801561016657600080fd5b5061036e6004803603608081101561017d57600080fd5b81019080803573ffffffffffffffffffffffffffffffffffffffff169060200190929190803590602001906401000000008111156101ba57600080fd5b8201836020820111156101cc57600080fd5b803590602001918460018302840111640100000000831117156101ee57600080fd5b91908080601f016020809104026020016040519081016040528093929190818152602001838380828437600081840152601f19601f8201169050808301925050505050505091929192908035906020019064010000000081111561025157600080fd5b82018360208201111561026357600080fd5b8035906020019184600183028401116401000000008311171561028557600080fd5b91908080601f016020809104026020016040519081016040528093929190818152602001838380828437600081840152601f19601f820116905080830192505050505050509192919290803590602001906401000000008111156102e857600080fd5b8201836020820111156102fa57600080fd5b8035906020019184600183028401116401000000008311171561031c57600080fd5b91908080601f016020809104026020016040519081016040528093929190818152602001838380828437600081840152601f19601f8201169050808301925050505050505091929192905050506108e7565b005b34801561037c57600080fd5b506103a96004803603602081101561039357600080fd5b8101908080359060200190929190505050610a2d565b6040518080602001828103825283818151815260200191508051906020019080838360005b838110156103e95780820151818401526020810190506103ce565b50505050905090810190601f1680156104165780820380516001836020036101000a031916815260200191505b509250505060405180910390f35b34801561043057600080fd5b5061045d6004803603602081101561044757600080fd5b8101908080359060200190929190505050610aef565b604051808273ffffffffffffffffffffffffffffffffffffffff1673ffffffffffffffffffffffffffffffffffffffff16815260200191505060405180910390f35b3480156104ab57600080fd5b506104ee600480360360208110156104c257600080fd5b81019080803573ffffffffffffffffffffffffffffffffffffffff169060200190929190505050610b6b565b6040518082815260200191505060405180910390f35b34801561051057600080fd5b5061053d6004803603602081101561052757600080fd5b8101908080359060200190929190505050610bb4565b604051808273ffffffffffffffffffffffffffffffffffffffff1673ffffffffffffffffffffffffffffffffffffffff16815260200191505060405180910390f35b34801561058b57600080fd5b506105ce600480360360208110156105a257600080fd5b81019080803573ffffffffffffffffffffffffffffffffffffffff169060200190929190505050610be7565b005b3480156105dc57600080fd5b506105e5610cee565b604051808273ffffffffffffffffffffffffffffffffffffffff1673ffffffffffffffffffffffffffffffffffffffff16815260200191505060405180910390f35b34801561063357600080fd5b506106606004803603602081101561064a57600080fd5b8101908080359060200190929190505050610d17565b6040518080602001828103825283818151815260200191508051906020019080838360005b838110156106a0578082015181840152602081019050610685565b50505050905090810190601f1680156106cd5780820380516001836020036101000a031916815260200191505b509250505060405180910390f35b3480156106e757600080fd5b50610714600480360360208110156106fe57600080fd5b8101908080359060200190929190505050610dd9565b6040518080602001828103825283818151815260200191508051906020019080838360005b83811015610754578082015181840152602081019050610739565b50505050905090810190601f1680156107815780820380516001836020036101000a031916815260200191505b509250505060405180910390f35b6000600180549050905090565b6000809054906101000a900473ffffffffffffffffffffffffffffffffffffffff1673ffffffffffffffffffffffffffffffffffffffff163373ffffffffffffffffffffffffffffffffffffffff16141515610860576040517f08c379a00000000000000000000000000000000000000000000000000000000081526004018080602001828103825260168152602001807f53656e646572206e6f7420417574686f72697a65642e0000000000000000000081525060200191505060405180910390fd5b600073ffffffffffffffffffffffffffffffffffffffff168273ffffffffffffffffffffffffffffffffffffffff161415151561089c57600080fd5b3073ffffffffffffffffffffffffffffffffffffffff168273ffffffffffffffffffffffffffffffffffffffff16141515156108d757600080fd5b6108e2838383610e9b565b505050565b6000809054906101000a900473ffffffffffffffffffffffffffffffffffffffff1673ffffffffffffffffffffffffffffffffffffffff163373ffffffffffffffffffffffffffffffffffffffff161415156109ab576040517f08c379a00000000000000000000000000000000000000000000000000000000081526004018080602001828103825260168152602001807f53656e646572206e6f7420417574686f72697a65642e0000000000000000000081525060200191505060405180910390fd5b60006109b985858585611067565b90507f438c1191298866ed823d6b9068bc5bdcdea4883fb9ad0584b7c51354efa3c44e8582604051808373ffffffffffffffffffffffffffffffffffffffff1673ffffffffffffffffffffffffffffffffffffffff1681526020018281526020019250505060405180910390a15050505050565b6060600182815481101515610a3e57fe5b90600052602060002090600302016001018054600181600116156101000203166002900480601f016020809104026020016040519081016040528092919081815260200182805460018160011615610100020316600290048015610ae35780601f10610ab857610100808354040283529160200191610ae3565b820191906000526020600020905b815481529060010190602001808311610ac657829003601f168201915b50505050509050919050565b60006002600083815260200190815260200160002060009054906101000a900473ffffffffffffffffffffffffffffffffffffffff169050600073ffffffffffffffffffffffffffffffffffffffff168173ffffffffffffffffffffffffffffffffffffffff1614151515610b6357600080fd5b809050919050565b6000600360008373ffffffffffffffffffffffffffffffffffffffff1673ffffffffffffffffffffffffffffffffffffffff168152602001908152602001600020549050919050565b60026020528060005260406000206000915054906101000a900473ffffffffffffffffffffffffffffffffffffffff1681565b6000809054906101000a900473ffffffffffffffffffffffffffffffffffffffff1673ffffffffffffffffffffffffffffffffffffffff163373ffffffffffffffffffffffffffffffffffffffff16141515610cab576040517f08c379a00000000000000000000000000000000000000000000000000000000081526004018080602001828103825260168152602001807f53656e646572206e6f7420417574686f72697a65642e0000000000000000000081525060200191505060405180910390fd5b806000806101000a81548173ffffffffffffffffffffffffffffffffffffffff021916908373ffffffffffffffffffffffffffffffffffffffff16021790555050565b60008060009054906101000a900473ffffffffffffffffffffffffffffffffffffffff16905090565b6060600182815481101515610d2857fe5b90600052602060002090600302016002018054600181600116156101000203166002900480601f016020809104026020016040519081016040528092919081815260200182805460018160011615610100020316600290048015610dcd5780601f10610da257610100808354040283529160200191610dcd565b820191906000526020600020905b815481529060010190602001808311610db057829003601f168201915b50505050509050919050565b6060600182815481101515610dea57fe5b90600052602060002090600302016000018054600181600116156101000203166002900480601f016020809104026020016040519081016040528092919081815260200182805460018160011615610100020316600290048015610e8f5780601f10610e6457610100808354040283529160200191610e8f565b820191906000526020600020905b815481529060010190602001808311610e7257829003601f168201915b50505050509050919050565b600360008373ffffffffffffffffffffffffffffffffffffffff1673ffffffffffffffffffffffffffffffffffffffff16815260200190815260200160002060008154809291906001019190505550816002600083815260200190815260200160002060006101000a81548173ffffffffffffffffffffffffffffffffffffffff021916908373ffffffffffffffffffffffffffffffffffffffff160217905550600073ffffffffffffffffffffffffffffffffffffffff168373ffffffffffffffffffffffffffffffffffffffff16141515610fc357600360008473ffffffffffffffffffffffffffffffffffffffff1673ffffffffffffffffffffffffffffffffffffffff16815260200190815260200160002060008154809291906001900391905055505b7fddf252ad1be2c89b69c2b068fc378daa952ba7f163c4a11628f55a4df523b3ef838383604051808473ffffffffffffffffffffffffffffffffffffffff1673ffffffffffffffffffffffffffffffffffffffff1681526020018373ffffffffffffffffffffffffffffffffffffffff1673ffffffffffffffffffffffffffffffffffffffff168152602001828152602001935050505060405180910390a1505050565b60008060009054906101000a900473ffffffffffffffffffffffffffffffffffffffff1673ffffffffffffffffffffffffffffffffffffffff163373ffffffffffffffffffffffffffffffffffffffff1614151561112d576040517f08c379a00000000000000000000000000000000000000000000000000000000081526004018080602001828103825260168152602001807f53656e646572206e6f7420417574686f72697a65642e0000000000000000000081525060200191505060405180910390fd5b6111356111f8565b6060604051908101604052808581526020018681526020018481525090506000600180839080600181540180825580915050906001820390600052602060002090600302016000909192909190915060008201518160000190805190602001906111a092919061121a565b5060208201518160010190805190602001906111bd92919061121a565b5060408201518160020190805190602001906111da92919061121a565b5050500390506111eb338883610e9b565b8092505050949350505050565b6060604051908101604052806060815260200160608152602001606081525090565b828054600181600116156101000203166002900490600052602060002090601f016020900481019282601f1061125b57805160ff1916838001178555611289565b82800160010185558215611289579182015b8281111561128857825182559160200191906001019061126d565b5b509050611296919061129a565b5090565b6112bc91905b808211156112b85760008160009055506001016112a0565b5090565b9056fea165627a7a72305820c6de93521ed8c3cad8bcd07870ac316c1e460ddebbfa0cf233255e3979ff6c1d0029",
  "source": "pragma solidity >=0.4.21 <0.6.0;\n//admin permission contract\ncontract Admin {\n  //admin address variable\n  address admin ;\n  //admin contract constructor to set admin as person who executes or deploys smart contract using msg.sender function\n  constructor() public{\n    admin = msg.sender;\n  }\n//setting acess modifier to restrict other addresses from acessing criticial functions .\n  modifier onlyAdmin()\n{\n    require(\n        msg.sender == admin,\n        \"Sender not Authorized.\"\n    );\n    // Do not forget the \"_;\"! It will\n    // be replaced by the actual function\n    // body when the modifier is used.\n    _;\n}\n//Change Admin Address Or Ownership\n  function changeAdmin(address _newAdmin) onlyAdmin() public {\n    admin = _newAdmin;\n\n  }\n  //function to get admin retrieve current admin address from blockchain\n  function getAdminAddress() public view returns (address) {\n    return admin;\n\n  }\n\n}\n//License Token Contract Start's Here\n\n//Inheriting All The Properties And Attribute's Of Admin Contract .\ncontract LicenseToken is Admin {\n\n//Now Building Proper Data Type To Store All The Attribute's Of Each License .\n  struct LicenseAttributes {\n\n    string registeredOn;\n    string expiresOn;\n    string device_hardware_id;\n\n  }\n//declaring list of our license tokens with attributes as an array .\n  LicenseAttributes[] license;\n//setting dictionary to store license data\n//Would Look Something Like This \"array Index\" => \"address of client\"\nmapping (uint256 => address) public licenseNumberToClient;\n//Would Look Something Like  \"Client Address\" => \"Total Licenses Owned By An Individual\"\nmapping (address => uint256) ownershipLicenseCount;\n\n\n//events\n//Genereate An Event When License Is Give To A Specific Address\nevent LicenseGiven(address account,uint256 licenseNumber);\n//Generate Evenet When License Is Transfered From One Address To Another\nevent Transfer(address _from,address _to,uint256 _licenseNumber);\n//Generate Event When Admin Approve's A New License\nevent Approval(address admin,address approved,uint256 licenseNumber);\n//contructor\nconstructor() public {\n\n}\n//started to implement basic function's\n//this function will return us total number of licenses\n\n  function totalLicenses() public view returns (uint256 total) {\n    return license.length;\n  }\n  //balanceof will return us total eth balance availaible in given eth address\n  function balanceOf(address _account) public view returns (uint256 balance) {\n\n      return  ownershipLicenseCount[_account];\n\n  }\n  //This Function Will Return Us Address Of Owner From Index Of License Token\n  function ownerOf(uint256 _license_number) public view returns (address owner) {\n\n    owner = licenseNumberToClient[_license_number];\n    //.i.e owner might not be burn address : 0x0000000000000000000000000000000000000000 else everyone will get free license's\n    //as we will be adding burned/expired licenses to burned address.\n    require(owner != address(0));\n    return  owner;\n\n  }\n//*******Crucial Financial Function To Make Transfer\n//This Is onlyAdmin Functionality And Admin Can Only Make This On User Request\n  function transferFrom(address _from,address _to,uint256 _license_number)onlyAdmin() public {\n    //neither burn address\n    require(_to!=address(0));\n    //nor it should be admin address\n    require(_to!=address(this));\n//Now A private function will intiate this transfer after doing validation's here\n    _transfer(_from,_to,_license_number);\n\n\n  }\n\n//this function is also admin only and only admin can create tokens \n  function giveLicense(address _account,string memory _registeredOn,string memory _expiresOn,string memory _hwid)onlyAdmin() public {\n    //now a private function will generate license and we wil store and emit it as an event\n    uint256 licenseId = _mint(_account,_registeredOn,_expiresOn,_hwid);\n    emit LicenseGiven(_account,licenseId);\n  }\n  //to get details of complete license index\nfunction getLicenseHardwareId(uint licenseNumber) public view returns(string memory){\n\n  return license[licenseNumber].device_hardware_id;\n}\n\nfunction getLicenseRegisteredOnDate(uint licenseNumber) public view returns(string memory){\n\n  return license[licenseNumber].registeredOn;\n}\nfunction getLicenseExpiresOnDate(uint licenseNumber) public view returns(string memory){\n\n  return license[licenseNumber].expiresOn;\n}\n\n\n  //Internal Private Methods\n  function _owns(uint _licenseId) internal view returns (address) {\n    return licenseNumberToClient[_licenseId];\n\n  }\n\n//this function will create a new token with unique attributes\n  function _mint(address _account,string memory _registeredOn,string memory _expiresOn,string memory _hwid) onlyAdmin() internal returns (uint256 tokenId){\n    //string memory hwid = string(_hwid);\n    LicenseAttributes memory licenseToken = LicenseAttributes({\n      registeredOn :_expiresOn,\n      expiresOn : _registeredOn ,\n      device_hardware_id : _hwid\n      });\n      //finally lets push this newly created structure into the array \n      uint id = license.push(licenseToken) -1;\n      //and now lets send it to the user we created it for\n     //Sending It from msg.sender .i.e. admin to the user what we need is our address,recievers address and his unique license index\n      _transfer(msg.sender,_account,id);\n      return id;\n\n  }\n  //this function will transfer token from one address to another\n  function _transfer(address _from,address _to,uint _licNumber)internal {\n    ownershipLicenseCount[_to]++;\n    licenseNumberToClient[_licNumber]=_to;\n    //and if this function is not created burn address then we remove the license count on senders id\n    if(_from!= address(0)){\n      ownershipLicenseCount[_from]--;\n\n    }\n    emit Transfer(_from, _to, _licNumber);\n  }\n}\n",
  "sourcePath": "/Users/vrushangdesai/Desktop/BLICFrontend/src/backend/contracts/LicenseToken.sol",
  "compiler": {
    "name": "solc",
    "version": "0.5.0+commit.1d4f565a.Emscripten.clang"
  },
  "schemaVersion": "3.0.0",
  "updatedAt": "2019-01-30T19:37:10.271Z",
  "devdoc": {
    "methods": {}
  },
  "userdoc": {
    "methods": {}
  }
}